{
  "contractName": "iot",
  "abi": [
    {
      "inputs": [],
      "payable": false,
      "stateMutability": "nonpayable",
      "type": "constructor"
    },
    {
      "constant": false,
      "inputs": [
        {
          "internalType": "uint256",
          "name": "s",
          "type": "uint256"
        }
      ],
      "name": "controlBulb",
      "outputs": [
        {
          "internalType": "uint256",
          "name": "",
          "type": "uint256"
        }
      ],
      "payable": false,
      "stateMutability": "nonpayable",
      "type": "function"
    },
    {
      "constant": true,
      "inputs": [],
      "name": "viewBulb",
      "outputs": [
        {
          "internalType": "uint256",
          "name": "",
          "type": "uint256"
        }
      ],
      "payable": false,
      "stateMutability": "view",
      "type": "function"
    }
  ],
  "bytecode": "0x608060405234801561001057600080fd5b5033600160006101000a81548173ffffffffffffffffffffffffffffffffffffffff021916908373ffffffffffffffffffffffffffffffffffffffff1602179055506101a1806100616000396000f3fe608060405234801561001057600080fd5b50600436106100365760003560e01c80633d3c29701461003b5780639d928ca51461007d575b600080fd5b6100676004803603602081101561005157600080fd5b810190808035906020019092919050505061009b565b6040518082815260200191505060405180910390f35b610085610108565b6040518082815260200191505060405180910390f35b60003373ffffffffffffffffffffffffffffffffffffffff16600160009054906101000a900473ffffffffffffffffffffffffffffffffffffffff1673ffffffffffffffffffffffffffffffffffffffff16146100f757600080fd5b816000819055506000549050919050565b60003373ffffffffffffffffffffffffffffffffffffffff16600160009054906101000a900473ffffffffffffffffffffffffffffffffffffffff1673ffffffffffffffffffffffffffffffffffffffff161461016457600080fd5b60005490509056fea265627a7a72315820b6bd98fa56f6aeb92ec00a0b50d9d7a0f1a229e0a76499793d9ce725ca1646c064736f6c63430005100032",
  "source": "pragma solidity 0.5.16;\n\ncontract iot {\n\tuint internal bulbState;\n\taddress owner;\n\n\tconstructor() public {\n\t\towner=msg.sender;\t\n\t}\n\n\tmodifier onlyOwner {\n\t\trequire(owner==msg.sender);\n\t\t_;\n\t}\n\n\tfunction controlBulb(uint s) public onlyOwner returns(uint){\n\t\tbulbState=s;\n\t\treturn(bulbState);\n\t}\n\t\n\tfunction viewBulb() public view onlyOwner returns(uint) {\n\t\treturn(bulbState);\n\t}\n}\n",
  "sourcePath": "/home/mad/bc-bootcamp/demo-iot/contracts/iot.sol",
  "compiler": {
    "name": "solc",
    "version": "0.5.16+commit.9c3226ce.Emscripten.clang"
  },
  "schemaVersion": "3.3.1",
  "updatedAt": "2020-10-20T09:51:48.215Z",
  "networkType": "ethereum",
  "devdoc": {
    "methods": {}
  },
  "userdoc": {
    "methods": {}
  }
}